{
  "contractName": "Certification",
  "abi": [
    {
      "inputs": [],
      "payable": false,
      "stateMutability": "nonpayable",
      "type": "constructor",
      "signature": "constructor"
    },
    {
      "anonymous": false,
      "inputs": [
        {
          "indexed": false,
          "name": "production",
          "type": "uint256"
        }
      ],
      "name": "certified",
      "type": "event",
      "signature": "0x003f8202984abfa3563eaedd6cd93411de0a2d9c9f5a45d8857bdfc2da1388c9"
    },
    {
      "constant": false,
      "inputs": [
        {
          "name": "yearlyProduction",
          "type": "uint8"
        }
      ],
      "name": "cerify",
      "outputs": [],
      "payable": false,
      "stateMutability": "nonpayable",
      "type": "function",
      "signature": "0x67fc8ca4"
    }
  ],
  "bytecode": "0x608060405234801561001057600080fd5b50336000806101000a81548173ffffffffffffffffffffffffffffffffffffffff021916908373ffffffffffffffffffffffffffffffffffffffff1602179055506000600160008060009054906101000a900473ffffffffffffffffffffffffffffffffffffffff1673ffffffffffffffffffffffffffffffffffffffff1673ffffffffffffffffffffffffffffffffffffffff16815260200190815260200160002060000160036101000a81548160ff0219169083151502179055506000600160008060009054906101000a900473ffffffffffffffffffffffffffffffffffffffff1673ffffffffffffffffffffffffffffffffffffffff1673ffffffffffffffffffffffffffffffffffffffff16815260200190815260200160002060000160016101000a81548160ff021916908360ff1602179055506102c6806101596000396000f3fe608060405260043610610041576000357c0100000000000000000000000000000000000000000000000000000000900463ffffffff16806367fc8ca414610046575b600080fd5b34801561005257600080fd5b506100826004803603602081101561006957600080fd5b81019080803560ff169060200190929190505050610084565b005b6000809054906101000a900473ffffffffffffffffffffffffffffffffffffffff1673ffffffffffffffffffffffffffffffffffffffff163373ffffffffffffffffffffffffffffffffffffffff1614158061014d5750600160008060009054906101000a900473ffffffffffffffffffffffffffffffffffffffff1673ffffffffffffffffffffffffffffffffffffffff1673ffffffffffffffffffffffffffffffffffffffff16815260200190815260200160002060000160039054906101000a900460ff165b8061015c575060018160ff1611155b1561016657610297565b60018060008060009054906101000a900473ffffffffffffffffffffffffffffffffffffffff1673ffffffffffffffffffffffffffffffffffffffff1673ffffffffffffffffffffffffffffffffffffffff16815260200190815260200160002060000160036101000a81548160ff02191690831515021790555080600160008060009054906101000a900473ffffffffffffffffffffffffffffffffffffffff1673ffffffffffffffffffffffffffffffffffffffff1673ffffffffffffffffffffffffffffffffffffffff16815260200190815260200160002060000160016101000a81548160ff021916908360ff1602179055507e3f8202984abfa3563eaedd6cd93411de0a2d9c9f5a45d8857bdfc2da1388c981604051808260ff16815260200191505060405180910390a15b5056fea165627a7a72305820f195c77cd32901188af3349f10db0694328f4ebb607062c4954e325334f8ff340029",
  "source": "pragma solidity >=0.4.22 <0.6.0;\n\ncontract Certification {\n    \n    struct Application {\n        uint8 eanCode;\n        uint8 yearlyProduction; //MWh\n        uint8 peakProduction; //MW peak\n        bool certified;\n    }\n    \n    address applicant;\n    mapping(address => Application) applications;\n    \n    constructor() public {\n        applicant = msg.sender;\n        applications[applicant].certified = false;\n        applications[applicant].yearlyProduction = 0;\n    }\n    \n    event certified(uint production);\n    \n    function cerify(uint8 yearlyProduction) public {\n        \n        if (msg.sender != applicant || applications[applicant].certified || yearlyProduction <= 1) return;\n        applications[applicant].certified = true;\n        applications[applicant].yearlyProduction = yearlyProduction;\n        emit certified(yearlyProduction);\n    }\n}",
  "sourcePath": "/Users/nima/projects/odyssey/blockchain/contracts/Certification.sol",
  "compiler": {
    "name": "solc",
    "version": "0.5.0+commit.1d4f565a.Emscripten.clang"
  },
  "schemaVersion": "3.0.6",
  "updatedAt": "2019-04-13T09:50:33.598Z",
  "devdoc": {
    "methods": {}
  },
  "userdoc": {
    "methods": {}
  }
}