{
  "contractName": "CertificationContract",
  "abi": [
    {
      "inputs": [],
      "payable": false,
      "stateMutability": "nonpayable",
      "type": "constructor"
    },
    {
      "anonymous": false,
      "inputs": [
        {
          "indexed": false,
          "name": "production",
          "type": "uint256"
        }
      ],
      "name": "certified",
      "type": "event"
    },
    {
      "constant": false,
      "inputs": [
        {
          "name": "productionInput",
          "type": "uint8"
        }
      ],
      "name": "cerify",
      "outputs": [],
      "payable": false,
      "stateMutability": "nonpayable",
      "type": "function"
    }
  ],
  "bytecode": "0x608060405234801561001057600080fd5b50336000806101000a81548173ffffffffffffffffffffffffffffffffffffffff021916908373ffffffffffffffffffffffffffffffffffffffff1602179055506000600160008060009054906101000a900473ffffffffffffffffffffffffffffffffffffffff1673ffffffffffffffffffffffffffffffffffffffff1673ffffffffffffffffffffffffffffffffffffffff16815260200190815260200160002060000160036101000a81548160ff0219169083151502179055506000600160008060009054906101000a900473ffffffffffffffffffffffffffffffffffffffff1673ffffffffffffffffffffffffffffffffffffffff1673ffffffffffffffffffffffffffffffffffffffff16815260200190815260200160002060000160016101000a81548160ff021916908360ff1602179055506103b9806101596000396000f3fe608060405260043610610041576000357c0100000000000000000000000000000000000000000000000000000000900463ffffffff16806367fc8ca414610046575b600080fd5b34801561005257600080fd5b506100826004803603602081101561006957600080fd5b81019080803560ff169060200190929190505050610084565b005b80600160008060009054906101000a900473ffffffffffffffffffffffffffffffffffffffff1673ffffffffffffffffffffffffffffffffffffffff1673ffffffffffffffffffffffffffffffffffffffff16815260200190815260200160002060000160018282829054906101000a900460ff160192506101000a81548160ff021916908360ff1602179055506000809054906101000a900473ffffffffffffffffffffffffffffffffffffffff1673ffffffffffffffffffffffffffffffffffffffff163373ffffffffffffffffffffffffffffffffffffffff161415806101db5750600160008060009054906101000a900473ffffffffffffffffffffffffffffffffffffffff1673ffffffffffffffffffffffffffffffffffffffff1673ffffffffffffffffffffffffffffffffffffffff16815260200190815260200160002060000160039054906101000a900460ff165b8061025b57506103e8600160008060009054906101000a900473ffffffffffffffffffffffffffffffffffffffff1673ffffffffffffffffffffffffffffffffffffffff1673ffffffffffffffffffffffffffffffffffffffff16815260200190815260200160002060000160019054906101000a900460ff1660ff1611155b156102655761038a565b60018060008060009054906101000a900473ffffffffffffffffffffffffffffffffffffffff1673ffffffffffffffffffffffffffffffffffffffff1673ffffffffffffffffffffffffffffffffffffffff16815260200190815260200160002060000160036101000a81548160ff0219169083151502179055507e3f8202984abfa3563eaedd6cd93411de0a2d9c9f5a45d8857bdfc2da1388c9600160008060009054906101000a900473ffffffffffffffffffffffffffffffffffffffff1673ffffffffffffffffffffffffffffffffffffffff1673ffffffffffffffffffffffffffffffffffffffff16815260200190815260200160002060000160019054906101000a900460ff16604051808260ff16815260200191505060405180910390a15b5056fea165627a7a72305820bc0afa6640436e9dedc3c3aeb8c87f3bfa8bfc3543a54b2701bcb76ee622033c0029",
  "source": "pragma solidity >=0.4.22 <0.6.0;\n\ncontract CertificationContract {\n    \n    struct Application {\n        uint8 eanCode;\n        uint8 productionAmount; //MWh\n        uint8 peakProduction; //MW peak\n        bool certified;\n    }\n    \n    address applicant;\n    mapping(address => Application) applications;\n    \n    constructor() public {\n        applicant = msg.sender;\n        applications[applicant].certified = false;\n        applications[applicant].productionAmount = 0;\n    }\n    \n    event certified(uint production);\n    \n    function cerify(uint8 productionInput) public {\n        applications[applicant].productionAmount += productionInput;\n        if (msg.sender != applicant || applications[applicant].certified || applications[applicant].productionAmount <= 1000) return;\n        applications[applicant].certified = true;\n        emit certified(applications[applicant].productionAmount);\n    }\n}",
  "sourcePath": "/Users/nima/projects/odyssey/blockchain/contracts/Certification.sol",
  "compiler": {
    "name": "solc",
    "version": "0.5.0+commit.1d4f565a.Emscripten.clang"
  },
  "schemaVersion": "3.0.6",
  "updatedAt": "2019-04-13T15:38:31.290Z",
  "devdoc": {
    "methods": {}
  },
  "userdoc": {
    "methods": {}
  }
}